:020000040800F2
:10000000F0FF0120B15C0508BDF20408358F01083E
:10001000295D0508295D0508295D05080000000027
:10002000000000000000000000000000C1F2040811
:10003000C5F2040800000000C9F204088D7301082D
:10004000295D0508295D0508295D0508295D050864
:10005000295D0508295D050825A900082DA90008C6
:1000600035A900083DA9000845A9000875A60008A3
:1000700085A6000895A60008A5A60008B9A6000850
:10008000CDA60008E1A60008295D050800000000D3
:100090000000000000000000000000004DA9000862
:1000A00025C80008BDC7000835C80008ADC700084E
:1000B000E5C70008F5C7000805C800088DA10008BD
:1000C00009B4000895A100080DB40008295D0508D1
:1000D000295D0508B1720108BD7201080000000029
:1000E00055A90008295D0508014E0508000000001B
:1000F000000000000000000000000000F5A600085D
:1001000000000000295D050815C80008295D0508E4
:1001100000000000000000000000000000000000DF
:1001200009A700081DA7000831A7000845A7000877
:1001300059A70008000000000000000000000000B7
:10014000000000000000000000000000CDF20408E4
:100150006DA7000881A7000895A70008C9720108CB
:100160009DA1000811B4000800000000000000007C
:10017000000000000000000000000000000000007F
:1001800000000000295D05080000000000000000DC
:08019000295D0508295D050841
:080198000458050001000000FD
:1001A000053001000800000060460020E44D0020FA
:1001B000000000008C730608E04D002003110100D0
:1001C0000A00000034450020F04D0020000000002F
:1001D000B1510408EC4D00202920140078000000E3
:1001E000B4420020004E002000000000000000008B
:1001F000FC4D00200B3001001A000000444200209A
:100200007C4E00200000000094730608784E002009
:100210001E4001004D000000EC4100209C4E0020DB
:1002200000000000AE730608984E00200D1001007B
:100230004C0000009C410020F04E00200000000017
:1002400049610108EC4E00200C60040078000000B9
:10025000E83A0020404F0020000000004D30020826
:100260003C4F0020012001000C000000603B0020FA
:10027000BC4F002000000000FC730608B84F0020AF
:100280002700010004000000D43B0020CC4F0020D8
:100290000000000008740608C84F00202320010059
:1002A00010000000C43B0020D44F002000000000DC
:1002B0001D730308D04F00200E8004009002000040
:1002C00044380020E84F002000000000C1DE020892
:1002D000E44F0020220201001C01000040450020E4
:1002E0007C5200200000000081D3000878520020DA
:1002F0001F020B0016000000B45300209C53002086
:10030000000000008D8B0008985300201B020100A4
:1003100010000000E0530020D05300200000000037
:100320004D8B0008CC53002028020400040000007C
:10033000F8530020F4530020000000001D8B00083B
:10034000F0530020270204000400000004540020A1
:100350000054002000000000118B0008FC53002016
:10036000001201000A000000185400200C54002064
:1003700000000000618A0008085400201A020100F1
:100380003C000000645400202854002000000000BD
:10039000199B0008245400202E02010004000000D4
:1003A00098480020A4540020000000002D540108AB
:1003B000A05400200400080080000000A048002095
:1003C000AC5400200000000000000000A8540020F1
:1003D0001C0202001C00000060420020305500207A
:1003E00000000000499200082C5500202630010032
:1003F0000800000040490020505500200000000087
:10040000515104084C550020190201001000000051
:10041000404300205C55002000000000718B000864
:1004200058550020081203000F000000304900203A
:100430007055002000000000058A00086C5500205F
:100440000A90010024000000D83B002084550020C1
:1004500000000000317303088055002003120100E2
:100460003D000000F4490020AC55002000000000D1
:100470000C740608A8550020010201000A000000C3
:10048000E84C0020F055002000000000798A0008A8
:10049000EC5500200C020100040000004849002037
:1004A0000056002000000000898A0008FC5500204A
:1004B000FD170100A0000000F84C002008560020A5
:1004C000000000008DE00308045600201310010016
:1004D000040000003C420020AC5600200000000058
:1004E0004C740608A8560020F5C1010074000000F5
:1004F000C0440020B45600200000000019ED03089D
:10050000B05600200202010003000000E04C002071
:100510002C57002000000000FD8B00082857002009
:10052000F62101000C000000584300203457002041
:10053000000000005074060830570020121201001D
:10054000040000000C6B0020445700200000000055
:10055000418B0008405700201102010008000000F4
:10056000106B00204C57002000000000298B000871
:10057000485700203400010010000000186B0020D4
:100580005857002000000000F9D1020854570020FD
:10059000F8310100060000008C4100206C5700205B
:1005A000000000005C74060868570020021001007B
:1005B0000C00000094490020785700200000000043
:1005C0006474060874570020FE0101001400000046
:1005D0002C4300208857002000000000DD8900081F
:1005E00084570020061203001200000080490020FA
:1005F000A057002000000000D19100089C57002067
:10060000F70101000600000050430020B857002009
:100610000000000070740608B4570020FC010100BF
:1006200009000000286B0020C457002000000000D3
:10063000618B0008C0570020FB0101000100000091
:10064000346B0020D457002000000000698B0008A4
:10065000D05700201A0001000E00000020490020A1
:10066000DC5700200000000076740608D8570020F0
:10067000141001000500000094410020F0570020F4
:10068000000000008DD10208EC570020FD010100A0
:100690002100000012480020FC570020000000004C
:1006A00003540108F85700201D0202000600000054
:1006B0000C4800202458002000000000000000002A
:1006C0002058002018400100380000007C42002023
:1006D0003058002000000000799B00082C580020B2
:1006E000F901010004000000386B00206C58002064
:1006F00000000000BD5301086858002012300100BE
:1007000010000000D43A00207458002000000000BF
:1007100084740608705800200A02010014000000CA
:1007200000380020886A00200000000019890008B5
:10073000846A002006200100280000000830002004
:10074000A06A002000000000A18A00089C6A002026
:10075000160215003F000000C42C0020CC6A0020C7
:1007600000000000B18B0008C86A00202F200100A3
:10077000220000001C7A0020C47700200000000046
:1007800094740608187A002015001000700000000C
:10079000447700204878002000000000000000009E
:1007A000407A00202A00080060000000E874002061
:1007B000E877002000000000E1DE0208447A002013
:1007C0002C00040010000000B4770020E479002021
:1007D0000000000095D80208487A002025201E005D
:1007E0002C010000BC730020B8780020000000003D
:1007F000000000004C7A00202B00120024000000B2
:10080000CC6B0020F479002000000000A5D802087D
:10081000507A00201302010004000000908700209D
:10082000A08D002000000000B67406089C8D0020FA
:1008300038400100060000007C7B0020A88D0020CD
:1008400000000000BA740608A48D00203750010093
:1008500028000000D8830020B48D00200000000094
:10086000C0740608B08D002016300100080000009A
:1008700068890020E08D002000000000E874060870
:10088000DC8D00201010010002000000988700207D
:10089000EC8D002000000000F0740608E88D0020B8
:1008A0001900010005000000508D0020F48D00208B
:1008B00000000000F2740608F08D002020620100A4
:1008C0000C000000EC810020008E002000000000E1
:1008D000F8740608FC8D00202D02010001000000C4
:1008E000309000203C90002000000000000000003C
:1008F0003890002029020100400000001C8E0020DA
:10090000449000200000000004750608409000207C
:100910000101010004000000F08F002088900020F9
:100920000000000000000000849000200001010091
:1009300004000000EC8F00209090002000000000D8
:10094000447506088C90002002010100030000009D
:10095000E88F00209890002000000000F92902088C
:10096000949000202A12010008000000A48F0020AB
:10097000A090002000000000487506089C90002010
:100980002B0201000C000000908F0020AC90002092
:100990000000000050750608A89000200300010028
:1009A0000100000000A600200CA8002000000000AC
:1009B0000000000008A8002005020100040000005B
:1009C0009C92002014A80020000000005C7506081E
:1009D00010A800202C1201000600000060920020E8
:1009E0003CA80020000000006075060838A8002020
:1009F0003A1001000C00000084AB00205CBA00201B
:100A0000000000006875060858BA00202332010073
:100A100014000000C0AA00206CBA002000000000F2
:100A20007475060868BA00200E020100020000007A
:100A3000F0CB0020F0CF00200000000088750608F1
:100A4000ECCF00201F50010024000000F4CF002054
:100A500080D70020000000008C7506087CD700209D
:100A6000100201000100000008040120040401201C
:100A700000000000B0750608000401200902010012
:100A800001000000DC030120100401200000000030
:080A9000B27506080C040120F8
:100A9800FFFFFFFFFF0000000060024010600240FF
:100AA800000000000000000000000000000B000033
:100AB800000000000000000000000000006002408C
:100AC8002860024001000000000000000000000053
:100AD800060C0000000000000000000000000000FC
:100AE8000060024040600240020000000000000078
:100AF80000000000100D00000000000000000000D1
:100B0800000000000060024058600240030000003E
:100B18000000000000000000160E000000000000A9
:100B28000000000000000000006002407060024009
:100B3800040000000000000000000000200F00007A
:100B480000000000000000000000000000600240FB
:100B5800886002400500000000000000000000005E
:100B68002610000000000000000000000000000047
:100B780000600240A0600240060000000000000083
:100B8800000000003011000000000000000000001C
:100B98000000000000600240B8600240070000004A
:100BA8000000000000000000362F000000000000D8
:100BB80000000000000000000064024010640240D1
:100BC80000000000000000000000000000380000E5
:100BD8000000000000000000000000000064024067
:100BE800286402400100000000000000000000002E
:100BF80006390000000000000000000000000000AE
:100C0800006402404064024002000000000000004E
:100C180000000000103A0000000000000000000082
:100C28000000000000640240586402400300000015
:100C38000000000000000000163B0000000000005B
:100C480000000000000000000064024070640240E0
:100C5800040000000000000000000000203C00002C
:100C680000000000000000000000000000640240D6
:100C78008864024005000000000000000000000039
:100C880026440000000000000000000000000000F2
:100C980000640240A064024006000000000000005A
:100CA80000000000304500000000000000000000C7
:100CB8000000000000640240B86402400700000021
:100CC80000000000000000003646000000000000A0
:100CD8000000000000000000000004010000020005
:100CE800010000021000000007000000FFFFFFFFE6
:100CF8000101FF00248F0508588F05088C8F05080F
:100D0800FFFFFFFF0800000025740108FFFF000037
:100D1800FFFFFFFF0001010100000000381906086D
:100D2800000008020503030000000000401906083F
:100D38000100080205040300000000004819060825
:100D4800000008020503030000000000501906080F
:100D5800010008020504030000000000CC57060843
:100D68000200FE010110030000000000440806080C
:100D780003001402000300000000000058190608D0
:100D880004001F0202000B000000000060190608A2
:100D980005001F0202010B00000000000200000015
:100DA8007D00000001010100CC190608701D06082D
:100DB800000000006DC40108A086010004000000C6
:100DC800CC1906080451060800000000295601083D
:100DD800E803000004000000FC040608000000000E
:100DE80000000000753402087D000000FF000000CC
:100DF800000906080000000000000000C9530208AE
:100E08007D000000FF0000001061060800000000DF
:100E180000000000211303087D000000FF0000000F
:100E28001C1E06080000000000000000DD5F01082D
:100E3800E803000003000000F40A060800000000B0
:100E4800000000007D39030810270000030000009F
:100E580054190608000000004DDA0208099E01082E
:100E68005F76000005000000F81F0608000000007B
:100E780000000000755F0108102700000200000054
:100E88000C5106080000000000000000FD55010894
:100E9800E8030000050000001851060800000000E3
:100EA80000000000252E0208204E0000030000006C
:100EB800285106080000000000000000054902084B
:100EC800204E000003000000385106080000000012
:100ED8000000000019970108400D030003000000FE
:100EE800A81A06080000000000000000919B0108F5
:100EF8001027000002000000901D060800000000F6
:100F080000000000792904081027000003000000F1
:100F1800485106080000000000000000C97D0108D3
:100F28001027000003000000A809060800000000C0
:100F38000000000069750108A861000002000000B7
:100F48005007060800000000000000003D57010897
:100F58001027000002000000002006080000000022
:100F680000000000E1860108A00F00000200000058
:100F7800B01A060800000000C1E003083543040861
:100F88008545010002000000100706080000000067
:100F980000000000B15A04081027000002000000F9
:100FA8007C1D060800000000000000007DCD03083D
:100FB80050C3000002000000545106080000000061
:100FC80000000000BD610408400D0300010000009E
:100FD8005C51060800000000000000002D560108C2
:100FE800400D0300020000006451060800000000E4
:100FF80000000000A114040850C300000300000012
:101008007051060800000000000000001D4602089C
:1010180040420F00010000007C510608000000005B
:10102800000000002171010850C300000100000009
:101038008851060800000000000000002D87040801
:1010480010270000020000000000803F00000000A0
:1010580000000000000000000000803F00000000C9
:1010680000000000000000000000803F00000000B9
:101078000000000000000000FFFFFFFFFFFFFFFF70
:101088009962010800000000000000000000000054
:101098005D7B010800000000000000000000000067
:1010A80001010000FFFFFF7F00000080000000003A
:1010B80028A80020080000000000000018A8002050
:1010C800080000007EFF7EFFE2FFE2FFFFFFFFFF58
:1010D80001F11F3F3CBA00204ABA0020299B0108B1
:1010E8000000000000000000000000000000FA43BB
:1010F8000000FA430000803F0000000000000000EC
:1011080000000000000000000000000000000000D7
:101118000000000000000000000000000000803F08
:101128000400000060FECD00E0BA002034BB0020BF
:10113800D6010000FF1FFF1F00FF00000000000095
:1011480000000000017E030800000000000000000D
:101158003EC8050801FF000001A0030800000000C8
:101168000000000060E10508000000000000000029
:1011780000000000ACCC05080000000000000000E2
:101188000000000064CD0508000000000000000019
:101198000000000010CD050800000000000000005D
:1011A800B59C030879C0002001010000010000007F
:1011B800FA00000001000000010000002D202D2D84
:1011C800202D2D2D2D202D2D2D000000000000009C
:1011D800000000000000000000000000C5A2030895
:1011E800000000000000000010CC05080961040898
:1011F800000000000000000084CB05088BD903081C
:1012080000000000000000003CCB050810BD0020D5
:1012180088136F170100000012BD002088136F1794
:101228000000000014BD002088136F1701000000A3
:1012380016BD002088136F1700000000B17D030859
:101248000000000000000000A4C80508B1C000208C
:1012580001000000F8C8050819BD002001000000C1
:1012680004C90508C0BD0020020000000CC905081B
:10127800D97D0308000000000000000018C9050817
:101288000000000000000000000000006CC9050814
:10129800000000000000000000000000DCC9050894
:1012A8000EBD00200200000024CA05089CC40020CE
:1012B800E0150C1700000000C01200004EC5002009
:1012C80000000000000000004CC5002000000000E5
:1012D800000000004AC500200000000000000000D7
:1012E80048C50020000000000000000046C500209E
:1012F800000000000000000044C5002000000000BD
:1013080000000000C00900200000000000000000EC
:1013180018BD00200300000014CA050800000000E2
:10132800000000000000000030CA050852C5002077
:10133800E0150C170000000054C500200200000052
:1013480024CA05082D202D2D202D2D2D2D202D2DA5
:101358002D2D00000000000000000000000000002B
:101368000000000000000000000000000000000075
:1013780068CA050856C500209CFF2C010000000023
:10138800B2C00020E0150C1700000000B4C0002017
:101398000200000024CA05082D202D2D202D2D2DFA
:1013A8002D202D2D2D2D0000000000000000000034
:1013B8000000000000000000000000000000000025
:1013C80000000000A0CA050844BC00200514010064
:1013D80043BC00200AFF010042BC002000FF0100BE
:1013E80041BC002000FF010040BC002000FF0100BC
:1013F8003FBC002000FF01003EBC002000FF0100B0
:101408003DBC002000FF01003CBC002000FF0100A3
:1014180070AB002000000000C800000000000000C1
:101428007CAB00200000D007000000008D75030889
:10143800D975030800000000ACCD050860BC002089
:10144800053201005EBC0020E803D007010000005F
:101458005CBC0020E803D007010000005ABC002053
:10146800E803D0070100000058BC0020030F01006A
:1014780056BC00201900F4010100000054BC0020F3
:101488000500F4010100000052BC0020003C0100EE
:1014980050BC00200000B80B010000004EBC00202A
:1014A8000200FF00010000004CBC00203200C4090B
:1014B800010000004ABC0020000064000100000098
:1014C80048BC00200200000034A0050846BC0020EB
:1014D8001400E80301000000AABC002000C80100B5
:1014E800A9BC002000500100A8BC0020005A01003F
:1014F800A6BC002002000000D89B0508405C060836
:10150800485C060862BC00200000B80B010000001F
:1015180064BC00200164010035770308597703088B
:101528000000000054CE05081EBF00200100C409B9
:10153800000000001CBF00200100C40900000000DA
:101548001ABF00200100C4090000000018BF0020D5
:101558000100C4090000000014BF00200100C409F4
:101568000000000016BF00200100C40900000000B0
:1015780012BF00200100C4090000000010BF0020B5
:101588000100C40900000000EFBC002000C80100F1
:10159800EEBC002000C80100ECBC00200000FFFFEA
:1015A8000A000000EABC00200100C8000100000099
:1015B800E8BC00203200307532000000E6BC002094
:1015C800E2FF140005000000E4BC00207EFF1400C8
:1015D80005000000E2BC002005002C010500000009
:1015E800E0BC0020055A0500F5BC002000FF010002
:1015F800F3BC002002000000040C0020F1BC002015
:10160800030000009CCE0508F4BC002000FF010088
:10161800F2BC002002000000040C0020F0BC0020F6
:10162800030000009CCE0508D0BD0020FF7F01000C
:10163800CCBD002000000000FFFFFFFF01000000FC
:10164800C8BD002000000000FFFFFFFF01000000F0
:10165800C4BD002000000000FFFFFFFF01000000E4
:10166800257603089176030800000000ACCE050833
:1016780034BC0020EE02CA080100000032BC002081
:1016880000C801006400000031BC002001C801004E
:101698006400000030BC002002000000089D05081E
:1016A8000CBD00200000803E050000000ABD00209F
:1016B80080C1803E0500000008BD00200083007D39
:1016C8000500000006BD002080C1803E0500000026
:1016D80004BD002000FF010002BD00206400F401E9
:1016E8000100000000BD00206400F40101000000BA
:1016F800FEBC00206400F40101000000FCBC0020D6
:1017080004000000F09F0508FBBC00200200000058
:10171800E49F05082FBC0020590000004C9D0508D7
:101728002DBC002003000000B8CF05082EBC002007
:101738000400000004A00508D9BC00200300000034
:10174800C8CF0508D8BC002003000000C8CF050892
:10175800CCBC0020000A0100CABC00200000E8033D
:1017680001000000C8BC00200000E80301000000E0
:10177800C6BC0020000A0100C4BC00200000E80329
:1017880001000000C2BC00200000E80301000000C6
:10179800BABC0020C800E80301000000C0BC00205B
:1017A8001400FA0001000000BEBC00200100E8039C
:1017B80001000000BCBC002000050100B8BC0020EE
:1017C800020000008C9C0508B6BC00200000F40153
:1017D80001000000B4BC00200000F401010000007A
:1017E800B2BC00200000F40101000000B0BC0020E1
:1017F8000000F40101000000AEBC00200000E80376
:1018080001000000ACBC00200000E803010000005B
:1018180095BC00201964010094BC0020020000005F
:10182800809C050889BC00200064010088BC002059
:101838000064010090BC0020006401000A00000060
:101848008FBC0020006401000A0000008EBC00204C
:10185800006401000A00000093BC002000FF0100A2
:101868000A00000092BC002000FF01000A000000EE
:1018780091BC002000FF01000A0000008DBC002080
:1018880001FF01000A0000008CBC002001FF0100DC
:101898000A0000008BBC002001FF01000A000000C4
:1018A800D6BC00200000F40101000000D4BC0020D8
:1018B8000000E80301000000D2BC00200000E8039B
:1018C80001000000D0BC00200000E8030100000077
:1018D800CEBC00200000E8030100000076C0002014
:1018E800E803D0070A00000074C00020006401006B
:1018F80072C00020E803D0070A00000070C0002072
:10190800006401000A0000006FC00020009601007A
:1019180066C0002000C8010065C000200064010006
:1019280064C000200064010063C00020006401005E
:1019380062C000200064010061C00020FF080100AF
:1019480060C0002001640100397803087D7803082D
:1019580000000000D8CF050869C00020013201004E
:1019680068C0002001000000549C050867C00020E2
:10197800040000005C9C05085FC000200096010080
:101988005EC00020006401005DC0002000FA010074
:10199800640000005CC000200AFA01005BC000205F
:1019A8000AC801005AC000200064010059C0002084
:1019B8000064010058C000200A5A010057C00020E6
:1019C80000C8010056C0002000C801006CC00020FB
:1019D800003201006EC00020001401006DC000201C
:1019E800005F01006BC00020040000009C9B0508FC
:1019F8006AC00020006401000A00000083BC0020C7
:101A08000AC805000A00000082BC0020010000008E
:101A1800D8A0050885BC00200AC805000A000000F7
:101A280084BC002001000000D8A005087ABC002072
:101A380000C805000A00000081BC002000C805009D
:101A48000A0000007BBC002000C805000A00000056
:101A58007CBC002000C805000A0000007FBC0020F4
:101A680000C805000A00000080BC002000C805006E
:101A78000A0000007EBC002000C805000A00000023
:101A88007DBC002000C805000A00000079BC0020C9
:101A980002000000689B050854C000200000D00721
:101AA800010000004FC0002000C801004EC0002007
:101AB80000C801004DC0002000C8010052C000202D
:101AC8000000D007010000004CC0002000C8010041
:101AD8004BC0002000C801004AC0002000C8010017
:101AE80050C000200000D0070100000049C00020BD
:101AF80000C8010048C0002000C8010047C00020FD
:101B080000C80100C868060800000000000028C5D9
:101B18000020D4680608070800000000041200200E
:101B2800DC680608070800000000FC110020E468D3
:101B38000608070800000000F4110020EC680608F9
:101B4800080800000000E8110020F46806080708EB
:101B580000000000E0110020FC68060807080000EB
:101B68000000D811002004690608070800000000DA
:101B7800D01100200C690608080800000000C411F4
:101B8800002014690608071000000000BC1100209E
:101B98001C690608071000000000B4110020246921
:101BA8000608071000000000AC1100202C69060888
:101BB800081000000000A0110020B4590608010018
:101BC80000000000000000000000000010000000FD
:101BD8000000000000000000FD76030819770308E4
:101BE8000000000048D005088D7A03089D7A030894
:101BF800418E03089CD00508DFBC0020005A010074
:101C0800DEBC002000C80100DCBC0020E803D007CF
:101C180001000000000000000000000089A6030881
:101C280038D10508FABC002003000000589B0508BD
:101C3800F9BC002000030100F8BC002000030100EB
:101C4800197B03086D7B0308000000008CD1050890
:101C5800C17B0308017C03080000000034D205089A
:101C6800E98C030851A1030800000000B4D205085C
:101C7800F6BC002001030100B97E0308E17E0308D9
:101C8800000000006CD60508B1740308D974030875
:101C980000000000ECD60508817C0308E17C0308FD
:101CA800000000005CD70508059C0308757403084C
:101CB8000000000014D80508797A03080000000025
:101CC80000000000A0D8050839790308A5790308A1
:101CD8000000000004D90508C1780308FD7803084E
:101CE80000000000BCD90508C5DD03080578030815
:101CF8000000000048DA050845C000200300000085
:101D080018C50020097A0308457A03080000000076
:101D180028DB05080DDE0308E59E03080000000027
:101D280098DB05087D770308C19D030800000000C3
:101D380084DD050869DD0308819D030800000000B3
:101D48000C12002046C0002003000000D4C400206C
:101D5800B97A0308E97A03080000000090DE050854
:101D6800D59B0308000000000000000000DF050804
:101D7800497C03086DA10308000000009CDF0508EA
:101D880000000000000000000000000038E0050826
:101D9800DDDC03084D9D030800000000A8E00508ED
:101DA800E0010100FFFFFFFFFCFFFFFF01FD010055
:101DB8000000803F01000000AA550701000014013F
:101DC800010101AA5505010000080000A400000057
:101DD800000000000000000054D7002000000000B0
:101DE8004CD7002000000000AA550902000000AAF4
:101DF8005503009F01000000AA550B010000AA55D9
:101E080005010000FFFFFF00F401000000000000D2
:101E1800000000000000000001000000755A0408DE
:101E280000000000000000000000000001000000A9
:101E38000000000000000000010203040102030486
:101E480006070809FF00000009024300020100C05C
:101E580032090400000102020100052400100105F6
:101E6800240100010424020205240600010705825A
:101E7800030800FF09040100020A00000007050129
:101E880002400000070581024000000009026400CA
:101E9800030100C032090400000103000000092109
:101EA800110100012236000705830309000A080B07
:101EB80001020202010009040100010202010005F9
:101EC800240010010524010002042402020524064E
:101ED8000102070582030800FF09040200020A0044
:101EE80000000705010240000007058102400000CC
:101EF8000100000012010002EF0201408304563283
:101F08000002010203010000120100020202004067
:101F1800830440570002010203010000040309047E
:101F280005010905A101A10005010930093109329E
:101F3800093309350934093609371581257F7508AC
:101F48009508810205091901290815002501950838
:101F580075018102C0C0000009022200010100E0F1
:101F680032090400000103010200092111010001E6
:101F78002236000705830309000A0000000100005B
:101F8800204E00000000000000000000000918506A
:101F980006000000D007000002040C0001071860CA
:101FA80007000000A00F000003040E0002051870CF
:101FB800070000000A1A000004040C00030218803D
:101FC80007000000204E000005020C00000997FFE2
:101FD8008106C409C40903008813010794FFE40CAF
:101FE800B80BC40906008813020590FFEF16AC0D64
:101FF800C4090A00881303028DFF2E2AA00FC40902
:1020080000008813B41900201804012004000000FF
:102018000100000051D40408000000000000000086
:10202800000000000000000000000000B0190020BF
:1020380000000000040000000100000095D404081E
:102048000000000000000000000000000000000088
:1020580000000000860000005C170020000000005F
:10206800040000000100000079EC040800000000F2
:102078000000000000000000000000000000000058
:10208800B81900201C040120040000000100000011
:10209800E5D3040800000000000000000000000074
:1020A800000000000000000097000000B0170020AA
:1020B80000000000030000000100000041D40408F3
:1020C8000000000000000000000000000000000008
:1020D800000000001B000000DC17002000000000CA
:1020E80003000000000000000000000000000000E5
:1020F80000000000080000000100000075D404087A
:1021080000000000000000000000000000000000C7
:1021180000000000AC190020140401200400000095
:1021280001000000ADEC0408000000000000000001
:10213800000000000000000000000000A8190020B6
:1021480000000000040000000100000095D404080D
:102158000000000000000000000000000000000077
:1021680000000000A4190020000000000200000088
:102178000000000000000000000000000000000057
:10218800080000000100000085D4040800000000D9
:102198000000000000000000000000000000000037
:1021A800A019002000000000040000000100000049
:1021B80095D40408000000000000000000000000A2
:1021C800000000000000000001010100C9CF040860
:1021D800E1C60408A5CA0408D9BB04085DC60408FA
:1021E800BDBB0408A5BB0408E9BB0408F9BB040887
:1021F800000000000000000085C0040889C0040831
:102208008DC0040899C004089DC0040891C0040842
:1022180095C0040855C0040879C0040895C204088C
:1022280081C20408A9C20408BDC20408D1C20408B6
:10223800913C0508A1BC04083DCA04080000000040
:10224800D1BC0408653D0508B93E0508913E05085E
:102258000000000000000000C5BC0408E93B0508B8
:1022680069BC04082DC804080000000009BC040863
:10227800C13C0508793D0508693E050800000000D5
:10228800000000002DBC0408000000000000000051
:1022980001020304060708098300FFFF1A00000073
:1022A8008200FFFF1D0000008200FFFF17000000F2
:1022B80015000000C0190020000000000000000008
:1022C8000000000000000000000000000000000006
:1022D80000000000000000000000000000000000F6
:1022E80000000000000000000000000000000000E6
:1022F80000000000000000000000000000000000D6
:1023080000000000000000000000000000000000C5
:082318000000000000000000BD
:10800000074BD0F8E4105B68D0F8F0205B1A9A4276
:10801000B8BFC0F8F030012380F81C310020704751
:10802000001000E0B74B00EB800270B503EBC20418
:1080300053F832205268B2F814C01CF0010F4FEA16
:1080400080016AD15FFA8CFE1EF0020F3DD0BFF3B3
:108050005F8F257F012D5FFA85FC00F0CC80148BAB
:10806000BFF35F8F0C1803EBC404257F022D00F0D3
:10807000E3800C1803EBC404257F032D06D1A47FF5
:1080800024B193F87940002C40F0E5809488A4B2A4
:1080900044F48064948093F978C001EB000E03EB04
:1080A000CE0E9EF81CE00EF1010EE6450CD1002428
:1080B00083F8794093F87A40002C40F0B680084469
:1080C00003EBC00300225A7670BD1EF0040F5BD193
:1080D0001EF0400E00F0C880158A93F978C0666AD9
:1080E000EDB206F80C505FFA8CFE267F0EF101040B
:1080F00064B2E51CAE4283F87840A44600F02A81C1
:108100000D1803EBC5052D7FAC42C6D10EF1020C54
:108110004FFA8CFC83F878C0BFE7B2F800C02CF4AB
:10812000006C4FEA0C4C4FEA1C4CA2F800C0B2F8AD
:1081300000C01FFA8CFC4CF4806CA2F800C0A57F34
:108140004FF0000C83F878C0002D46D093F879509A
:10815000002D3FD0012483F879400C1803EBC404B0
:10816000247F022C04D11488A4B244F40064148047
:108170000C1803EBC404A47E44F0010414820844E8
:1081800003EBC0031B7F70BDA57F4FF0010C83F88C
:108190007AC0002D6FD093F87950002D70D10C1853
:1081A00003EBC404647F002C00F0AE80148893F8C5
:1081B00078C0A4B244F400740CF1010C14804FFA9E
:1081C0008CF483F87840B2F800C01CF4807FFAD1B8
:1081D000A44662E7E47EFF2CBCD00C1803EBC40479
:1081E000A57E05F0FE051582E27EFF2AC7D0FF229C
:1081F00083F87820C3E7A47F002C3FF430AF93F8D6
:108200007940002C3FF42BAF148824F480642404BC
:10821000240C1480BFF35F8F148B148883F87AC00A
:10822000A4B244F40074148030E7948824F44074B9
:108230002404240C948042E7A47F002C3FF419AF5F
:1082400093F87940002C3FF414AF148824F4806430
:108250002404240C1480948824F480642404240CC2
:10826000948093F978C018E71FFA8CF52D0631D465
:1082700093F978C011E793F87940002C8FD095E7F7
:10828000257F022D15884AD925F480652D042D0CF3
:108290001580158A666A93F978C0EDB206F80C501D
:1082A000666A1488A4B244F4007414805FFA8CFCEB
:1082B000158A0CF1010464B2EDB2355595880CF1C4
:1082C000020CADB24FFA8CF445F4806583F8784027
:1082D000958078E793F978506E1C42D0266A765DD7
:1082E0001682247F05F1010C4FFA8CFC644583F85B
:1082F00078C07FF4D2AE948824F480642404240CE3
:108300009480CAE6201A00201488A4B244F4807431
:108310001480012483F8794093F9784053E7ADB293
:1083200045F400751580158A666A93F978C0EDB238
:1083300006F80C505FFA8CFC666A158A0CF1010491
:1083400064B2EDB20CF1030C35554FFA8CF483F89E
:10835000784038E7958825F480652D042D0C9580AC
:10836000CEE6E57E1582A57F83F878E01DB9247FEF
:10837000002C7FF404AF948824F480642404240C3B
:108380009480FCE61B4B01681B4A03F5727C03E0FA
:1083900063452CD053F82C2F9142F9D170B593F846
:1083A00004E0427996450AD0634505D053F82C2F56
:1083B0009142F4D06345F9D14FF0FF3070BD9E4635
:1083C0008468DEF80C50A5424FF0000208D001325C
:1083D000032A0EF10C0EE7D0DEF80C50A542F6D1C0
:1083E000DEF81050C668B542F1D150B270BD4FF002
:1083F000FF307047447505080000014030B5EAB110
:108400008E464FEA014C034600F1C005002419686E
:108410009A6841EA0C0142EA0E029A60C3E900142C
:108420000C33AB42F3D1D0F8C030C0F8C44043EABB
:108430000E03C0F8C030C0F8C84030BD4FEA014E4E
:108440008C46E0E783691969B3F80CC00A6830B458
:108450009C6822F0010224680A60A28992B222EA92
:108460000C02A281027D04681F2A06D96568203AA1
:1084700008209040284246D0FEE72568082090401A
:108480002842F9D1202000FA02F2A260274A92F88D
:108490007B20002A35D01A7E012A39D0D3F8F42067
:1084A0000132C3F8F420EFF31181502282F31288D5
:1084B00058685C6C026822EA04029C6C2243C9B2D0
:1084C000026081F31188D3E90C401A6999681D6C28
:1084D000096814605061D3E90E4054609060002434
:1084E000B3F8A800D5604C62C8621068012420432C
:1084F00010601C7683F8F1408A899B8913439BB2F4
:108500008B8130BC7047202000FA02F2E260BDE7A8
:10851000002283F8F120D3F8F8000A68013022F035
:108520000102C3F8F8000A60EBE700BF201A002040
:1085300010B40C4CE36F002B11DD002004F1800C13
:108540000146DCF8A03003F1C00259600C339342BD
:10855000FBD1E36F013083420CF5807CF1DC5DF8E8
:10856000044B7047201A0020704700BF024B03EBFA
:10857000401090F89D047047201A00204368B0F81E
:10858000502010B41A83EFF31182502383F3128822
:108590004168446C0B6823EA0403C46C2343D2B2E1
:1085A0000B6082F31188D0E9074182680369126881
:1085B0001C605961D0E909415C60C46A9960B0F8F7
:1085C0006010DC600023D1625DF8044B03767047D5
:1085D0000C2911D8DFE801F0231010101910101029
:1085E000111010100700838B23F400631B041B0C75
:1085F00043EA022292B282837047838B23F00803FE
:108600001B041B0C1A4382837047038B23F4006303
:108610001B041B0C43EA022292B202837047038BB5
:1086200023F008031B041B0C1A430283704700BF8E
:10863000704700BF0B4890F8B41589B101EB4101B8
:10864000002310B4490000F2BC501C4650F823200F
:10865000063302B114608B42F8D15DF8044B7047C9
:10866000704700BF201A00200B4890F8B41589B15C
:1086700001EB4101002310B4490000F2BC501C463C
:1086800050F82320063302B114609942F8D15DF806
:10869000044B7047704700BF201A0020012070472C
:1086A000034B00EB400003EBC00090F8CD05704792
:1086B000201A002007EE900AB8EE670A704700BF44
:1086C000BCEEC00A10EE103A98B2704708B51D20F3
:1086D0000EF066FB08B183794BB11E200EF060FBF3
:1086E00008B1837903B108BD5523C38008BD552364
:1086F000C380F2E710B50C2937D8DFE801F09736D0
:10870000363666363636373636360700038C5488AA
:10871000B2F80CE023F480531B041B0C0384038C7D
:10872000B0F804C0818B21F4E6414EEA040E09043E
:10873000148823F40053090C41EA04211B04754CEE
:108740001B0C43EA0E33A0421FFA8CFC9BB289B289
:1087500000F0AE8004F58064A04200F0A980926829
:10876000A0F804C081830264038410BD038CB2F8B6
:108770000CC0548823F480731B041B0C0384038CEB
:10878000B0F804E0818B23F400731B044CEA040C62
:1087900021F073011B0C43EA0C230904B2F800C05A
:1087A000090C41EA0C0C5B4988421FFA8EFE9BB211
:1087B00068D001F58061884264D09268A0F804E036
:1087C000A0F81CC0C263038410BD038CB2F80CC0B7
:1087D000548823F010031B041B0C0384038CB0F893
:1087E00004E0018B23F020031B044CEA040C21F469
:1087F000E6411B0C43EA0C130904B2F800C0090C53
:1088000041EA0C211FFA81FC424988421FFA8EFE80
:108810009BB269D001F58061884265D09268A0F86A
:1088200004E0A0F818C08263038410BD038C548850
:10883000B2F80CE023F001031B041B0C0384038C2F
:10884000B0F804C0018B21F073014EEA040E090454
:10885000148823F00203090C1B0421432D4C1B0C2C
:1088600043EA0E03A0421FFA8CFC9BB228D004F509
:108870008064A04224D09268A0F804C001834263BF
:10888000038410BDD189548A23F4006343EA012193
:10889000138A2EF4405E23434EEA031E94884FF65B
:1088A000FF330B4043EA04231FFA8EFE9BB284E79A
:1088B000148A2CF4804C4CEA841C1FFA8CFC4EE782
:1088C000D489B2F810E023F008032343548A2CF42F
:1088D000407C4EEA040E948823F004034CEA0E0C0C
:1088E0001FFA8CFC2343C6E7D189548A23F0800306
:1088F00043EA0111138A2EF4406E23434EEA830E9D
:1089000094884FF6BF730B4043EA04131FFA8EFEA0
:108910009BB283E700000140B42282802A224FF4F8
:10892000A57C4FF4EB7102814FF487720023A0F80D
:1089300002C0C1804FF4E17C962182814422037001
:10894000A0F80AC0C18102824382704782B01F4BE7
:10895000002201920193019B1D4A04330193019B64
:108960001968936803F00C03042B07D0082B0AD076
:10897000184B194AC3F87C2602B07047154BC3F850
:108980007C1602B070475368506813F4800F00F0F3
:108990003F00536813D1C3F388130F49B1FBF0F1C3
:1089A00001FB03F30A4A0B495268C2F30142013248
:1089B0005200B3FBF2F3C1F87C3602B07047C3F348
:1089C0008813B1FBF0F101FB03F3EBE75028004003
:1089D00000380240201A00200024F400012141F256
:1089E0000102002341F2011C017202804FF6017165
:1089F000FF22A0F804C043818381C3810182827475
:108A0000704700BF154BFF224FF0FF3CF0B5C2701E
:108A10000271027242724273827303F10C0766465E
:108A2000172516244FF0150E002202EB8202811842
:108A30009F4200F802E04C708D70CE7081F804C047
:108A40000BD093F9062093F807E01C7A5D7A93F92E
:108A50000A6093F90BC00633E7E7F0BD38790508E3
:108A60004FF0000C01210222032380F805C0817120
:108A7000C2710372704700BF00230222037043706B
:108A80008370C370027170474FF0010C2C210222D9
:108A9000002380F800C041708270C370704700BF2F
:108AA0004FF4F07202804FF4FA6240F22E410284D9
:108AB00040F226224FF0060CC18382834FF47A7174
:108AC00041F6181280F802C041844FF4F56C42F26E
:108AD0001A01028124220023A0F824C041814FF012
:108AE0000E0C01210273022280F826C0417140F26F
:108AF000012C40F2034183714274438240F20562CB
:108B00000723A0F814C0C18202838376704700BF98
:108B10000023037043708370C37070470023037099
:108B200043708370C37070470123002225210170B8
:108B300042708270C270037143718371C371704758
:108B4000FF23037043708370C370704700230621B6
:108B50004FF47A72C0E9012301700373704700BFBC
:108B600000230372704700BF00230370704700BFEB
:108B700022234FF0130C02213D2243721F2380F861
:108B800000C0418182818373704700BF0023411C74
:108B9000FF2200F8132001F8132001330B2BF8D12A
:108BA000027042708270C2708272C272704700BFDF
:108BB00003214FF0120C4170182180F800C0C170E1
:108BC0004FF0FF0C1A2180F802C041724FF0190CCF
:108BD00002210123002280F806C041734FF0200CCF
:108BE000242103714371C37103728372C37280F8CD
:108BF0000CC08273C1730374427470470323037003
:108C0000704700BF704700BFD0ED007AD0ED016A19
:108C100030EE677AE6EE877AB0EE670AC0ED007A4A
:108C2000704700BFD0ED017AD0ED026A30EE677A6E
:108C300090ED000AE6EE877A37EEC07AC0ED017A51
:108C4000A6EE870A80ED000A704700BF90ED017A1A
:108C5000D0ED036AD0ED027A30EE470AA6EE807AB4
:108C600090ED000A80ED017A37EE676AE6EE867ACB
:108C700037EEC07AC0ED027AA6EE870A80ED000AD0
:108C8000704700BFD0ED056AD0ED017A90ED007A13
:108C900090ED066AD0ED025A90ED035A80ED050A78
:108CA00066EEA77AC0ED066AE7EE007A90ED077AE5
:108CB000E5EE867A90ED086AD0ED045A80ED087AE8
:108CC000E5EE477AE5EEC67AB0EE670AC0ED077AC0
:108CD000704700BFD0ED057A90ED006A90ED067AFE
:108CE000D0ED035AE6EE007A90ED016AF0EE406AAC
:108CF000A6EE267AB0EE670AD0ED047A90ED026A0D
:108D000067EEC07AA5EEC07AE6EE267A80ED057AA7
:108D1000C0ED067A704700BF2DE9F047089F3C463A
:108D20000E4614F8011B002B054614BF4FF0300906
:108D30004FF0200941B3002A2CDD234600E0B2B1F8
:108D400013F8010B9046013A0028F8D1A8F1020867
:108D50006AB1C24649462846B0475346002B0AF13D
:108D6000FF3AF7DC397828EAE872013249B1D71BBB
:108D70002846B047E01914F8011B0029F8D1BDE8D6
:108D8000F0871046BDE8F087002A02F1FF38E0DCEA
:108D90000846F4E70022EAE703685A1C02601970EB
:108DA000704700BF024BD3F8800603681B68184762
:108DB000201A0020884210B54FF001043ED301FB79
:108DC00004F4B0FBF4FC8C45F9D2CCB122BB08E032
:108DD000A14203F801EBB4FBF1F211D8B0FBF2FCB5
:108DE0001446BCF1090F0CF1570E0CF1300204FBD4
:108DF0001C00EDDCA14203F8012BB4FBF1F2EDD92C
:108E000000221A7010BDA14203F801EBB4FBF1F28D
:108E1000F6D8B0FBF2FC1446BCF1090F0CF1370E8A
:108E20000CF1300204FB1C00EDDCA14203F8012B25
:108E3000B4FBF1F2EDD900221A7010BD8446002A6D
:108E4000EAD1CEE7002870B503DA2D2301F8013B03
:108E50004042092886464FF0010307DD03EB8303F8
:108E60005B00B0FBF3F2092AF8D8EBB1104CBEFB63
:108E7000F3FCA4FB0320C008BCF1090F0CF1300681
:108E80000CF15705024607D8092B01F8016B03FBCB
:108E90001CEE09D90346EAE7092B01F8015B03FB45
:108EA0001CEE01D91346E2E700230B7070BD00BF32
:108EB000CDCCCCCC164BD0F8E0105A6810B5044697
:108EC000D0F8D80071B1131A99420BDC94F8D03065
:108ED000C4F8D820012B10D0D4F8D4300133C4F812
:108EE000D43010BDD4F8E430C4F8D8200344C4F81A
:108EF000DC3094F8D030012BEED104F1E801201DD4
:108F00000DF0F6FBD4F8D4300133C4F8D43010BDE2
:108F1000001000E00C4AF8B5136855692B4003EACD
:108F2000000555617DB1094F0126B5FA85F4C4F1FC
:108F30001F0407EB840306FA04F4D3F884060368DD
:108F40009847A543F1D1F8BD003C0140201A00200C
:108F5000038A2DE9F047B0F80C901FFA89F919EA55
:108F600003092BD005460E464FF000474FF000088E
:108F7000B9FA89F327FA03F2D24391B21B3B298253
:108F800009EA0209042B16D8DFE803F0352C231A6E
:108F90000300B36A002B37D003F1FF3A1FFA8AFAB5
:108FA000C6F82880746A34B1236820465146984731
:108FB0006468002CF8D1B9F1000FD9D1BDE8F08771
:108FC0007068696B036889B29847B9F1000FCFD117
:108FD000F4E7B068A96B036889B29847B9F1000F4C
:108FE000C6D1EBE7F068E96B036889B29847B9F13D
:108FF000000FBDD1E2E73069296C036889B2984758
:10900000B9F1000FB4D1D9E7E96A1FFA81FAC9E7CB
:10901000F0B5836993F8DC20012A8BB0054627D090
:10902000023A012A2FD893F84C21D3F89C10174C00
:1090300062F07F030B708669D6F8A0305F1C0FCCFE
:10904000EC46ACE80F00D6F89C30CDE900370FCCE9
:10905000ACE80F0094E803008CE80300694606F1D1
:1090600010000DF045FBAB6919690A6A002AFCD1B2
:10907000D3F8A0305A8852BAEA819A8852BA2A8222
:10908000DB885BBA6B8201200BB0F0BD4C79050820
:10909000F0B590F8DC30D0F8A060012B8BB004461E
:1090A0004BD015D8D0F89C304FF0FF321A605A6080
:1090B0009A60DA60D0F8E0300522B3F57A7FC0F824
:1090C000F02054D8032380F8DC3001200BB0F0BD31
:1090D000023B012BF9D890F84D31D0F89C203A4D45
:1090E00063F07F031370D0F8A0305F1C0FCDEC4607
:1090F000ACE80F00D4F89C30CDE900370FCDACE8D8
:109100000F0095E803008CE80300694604F11000A5
:109110000DF0EEFA2269136A002BFCD173885BBA5A
:10912000A4F8D030B3885BBAA4F8D230F388012019
:109130005BBAA4F8D4300BB0F0BD90F84C2190F895
:109140004D319B1A5B100133DBB206EB430236F85C
:1091500013305BBAA0F8D03053885BBAA0F8D23095
:1091600093885BBAA0F8D43001200BB0F0BD03693E
:109170001A7B2AB35B691BB390F8983003B390F85D
:109180004C31D0F89C20C4F8A40063F07F03137026
:1091900090F84C1190F84D31D0F8A0200B48C4F84D
:1091A00004015B1A07330121C4F8FC30D4F89C3069
:1091B00084F800110A44C4E93D3284F8DC1084E7E5
:1091C000022384F8DC3080E74C7905080180000830
:1091D000114B002130B50160818003F10C054FF483
:1091E00048748E460A4602EB420200EB420C00F83D
:1091F00012E08CF80110DA788CF80220AB42ACF85F
:10920000044007D093F9062093F807E0197A5C89A7
:109210000633E8E730BD00BF7479050801394B001B
:1092200003F00802930001F00301A3EB9203C1EBEA
:109230000111C3EB0313C1EB011100229B00890054
:109240000260818043807047F0B5044687B00025F6
:1092500002A803212570ADF80850ADF80A50ADF80A
:109260000C50FFF7DBFF03C8ADF81410BDF8143045
:10927000A38141F2014301260227638040F2233398
:109280000490A060E380684631466770A673ADF82D
:109290000050ADF80250ADF80450FFF7BFFF4FF497
:1092A0008073A382E773268203C8ADF81410BDF85B
:1092B0001430C4F81600638307B0F0BD2DE9F04107
:1092C0002F4F07EB401898F89C340BB9BDE8F0819C
:1092D0008C2303FB00730E4693F8C62688F882247D
:1092E000002183F8C616044645010DF03BF9C0BBCA
:1092F0003D442448A5F8806400EB44100DF07CF850
:1093000097F87B30D5F89824A3B1D5F88414D2F817
:10931000A03001248C4003F1C001420010F4004F42
:1093200090B202D15A6822435A600C339942F4D168
:10933000BDE8F081D5F88444D2F8A03004F11002E1
:109340000124944003F1C001420010F4004F90B298
:1093500002D15A6822435A600C339942F4D1BDE8D5
:10936000F08197F8843B03EB430307EBC3032344EB
:1093700093F8316B002EBBD0012388F88234B7E715
:10938000201A0020A01E00208388C3F30B03934201
:10939000A8BF134670B51A461D460C46064680689F
:1093A0004EF043F862199442B569074B08D007485C
:1093B00014F8011B00FB03F3A24283EA0103F7D177
:1093C0002B60012070BD00BFC59D1C819301000171
:1093D00070B5214C94F8852B94F8843B9A4236D191
:1093E00094F8863BE3B194F8875B1C4B002040F275
:1093F0000D3CB5B19A68998951601668196846F0B4
:1094000001061660A1F848C08A8992B242F48072BF
:109410008A8194F8862B0130824203F11803E8DC3C
:1094200070BD1A68118821F080010904090C1180AF
:109430009988D162118889B241F08001118055620A
:10944000998A9689314389B291819D82E1E749F0F9
:10945000BBFD0028C4D170BD201A0020A825002023
:109460002DE9F84F037D02681F2B044608D9506888
:10947000A3F120052021A940014206D1BDE8F88FC3
:109480001068202199400142F8D04C494C4D496860
:10949000C5F8481C95F8871BA66901BB8C2101FB08
:1094A0000651D1F8CC06D1F844C70768DCF80000B3
:1094B000B1F8D0E620F00100CCF80000B98989B2FB
:1094C00021EA0E01B98195F87B10E9B91F2B68D903
:1094D000A3F1200120238B40D360BDE8F88F8C21BD
:1094E00001FB0651D1F8CC160F690868396821F0E4
:1094F00001013960818921F480710904090C81819D
:1095000095F87B100029E1D08C2706FB07F705EBC7
:10951000070B2C49DBF84497DBF8CC3607F1180829
:109520004846D3F800A0884442F008F8D5F8503CEB
:10953000244901228BF81827002B38D0BAF80030C4
:109540009BB243F08003AAF8003074374FF0FF332A
:109550003944CAF82C30504642F060FA8C2303FBA1
:10956000065600234146C6F8E836484642F07CF8E5
:10957000D6F8443716225A601A6842F001021A607F
:10958000D6F8CC26B6F8D036126891890B439BB238
:1095900093810A49237D49682268C5F84C1C1F2B1A
:1095A00096D8202101FA03F39360BDE8F88F0DF0FF
:1095B000A1FF0449C5F8500CC0E700BF001000E04F
:1095C000201A0020E4200020F8B5164D1648174F49
:1095D00000214FF4DC724DF050FF05F274664FF03D
:1095E000804105F5CB643A46002301E054F833206E
:1095F00091420BD001330A2BF8D100201C3548F0E2
:109600003FFDB5420CD055F81C1CECE7084A02EBB4
:10961000C3031C3593F8BC0A48F032FDB542F2D1C1
:10962000F8BD00BFA47905087426002000000140A1
:1096300044750508274B5B68C3F308032DE9F04127
:10964000002B3AD1EFF31183BBBB0DF02FFF054682
:10965000214F204E4FF00008FC6F002C29DD002325
:109660001A4607EB0321013391F871119C4242EA3B
:109670000102F6D142EA0804E4B290467368C3F3EB
:1096800008039BB9EFF3118383B90DF00FFF431B60
:10969000B3F5FA6F02DCB8F1000FDDD11CB197F819
:1096A0000C3E542B0DD02046BDE8F0810DF08CFE11
:1096B000EDE744464FF00008E0E70DF085FE054673
:1096C000C6E7B7F8143E0133A7F8143E2046BDE8BC
:1096D000F08100BF00ED00E0201A00202DE9F041EC
:1096E000234D95F8852B95F8843B9A4239D1EE6F3E
:1096F000002E12DD002495F87B701E48A046013430
:1097000017B1037E012B27D002691368B44243F0DE
:10971000010300F580701360F1D1174B5B68C3F350
:109720000803B3B9EFF311839BB90DF0BFFED5F871
:10973000204E002C0BDD114A02EBC4041168938803
:109740008889083203439BB294428B81F6D1BDE8ED
:10975000F0810DF039FEEAE780F8F080FEF70EFFA9
:10976000D2E749F031FC0028C1D1BDE8F08100BF4B
:10977000201A0020A01A002000ED00E0442800205C
:109780002DE9F04F2DED028BC24F83B097F87B305F
:1097900001932BB9012003B0BDEC028BBDE8F08F23
:1097A000D7F8443E08EE103A07F5906A07F6486984
:1097B0004FF0000BB84BD3F840315B4540F3E480E9
:1097C000DAF81830DAF80450D3E93A84AD000DF035
:1097D00091FE05F1085505EB481597F80C8E864665
:1097E00004F1806197F8500F3939B8F1540F05EB47
:1097F000811105EB801301D1A7F8160E994240F2B2
:1098000028811A68002A00F01D811A6C002A00F0D5
:109810002D81D3F88020002A00F02A81D3F8C020BF
:1098200003F58073002AE9D15D1B99424FEAA51523
:1098300040F20F81611B45294FF0000428BF4521EC
:1098400003EB81119C46204626460DE01A6C002A47
:1098500040F0A380D3F88020002A40F0C980D3F8DC
:10986000C02003F580732AB9994206D91A68002AE4
:10987000ECD04033994200F29480112E344640F2ED
:10988000EC80D6F1150200F1E88084490B689D4216
:10989000D7F8543F38BF0D60AEEB0301002916DB4B
:1098A00003F5F42303F590739E4588BF0EF105037D
:1098B000C7F8543F794B79491B68052B86BF053B98
:1098C000DBB2002387F8503F4FF0FF330B6042B10B
:1098D00000FA02F2C4F11404012000FA04F444EA8C
:1098E00002006F4AC0F3C43302EB8303D3F8081BB2
:1098F00000F01F0302EB8303D3F8083B43EA013374
:10990000C0F3441102EB8101C0F3842002EB80001C
:10991000D1F8082B43EA0213D0F8082B43EA0223BC
:1099200083EA132282EA121202F00F020F2A7AD17E
:10993000B3F5803F77D2B8F1540F4FEA131304D137
:10994000B7F8102E0132A7F8102ED7F8502EB3F525
:10995000606F02F10102C7F8502E00F0A780019954
:10996000A9F80C304F4B5C2018EE102A00FB0B308E
:109970000CF08EFD0BF1010BBBF1080F0AF1200A70
:1099800009F114097FF416AF0123012087F84C3F39
:1099900003B0BDEC028BBDE8F08F803399427FF6B7
:1099A0006CAFA3EB0C029211541C3F4A82FB04C221
:1099B000A2EBE472012AB8BF0122904001241644B0
:1099C000013A04FA02F210431C46226892B1226C5A
:1099D000002A4FD0D4F88020002A4DD0D4F8C020DF
:1099E00004F580743AB1A142EFD89C4623463BE788
:1099F000C0333FE74034A142F7D9E31A9B115A1C08
:109A0000294B83FB02C3A3EBE273012BB8BF0123F5
:109A100098401E440122013B02FA03F318432346F7
:109A20009C46234620E7B8F1540F27D0D7F8503E84
:109A30000133C7F8503ED7F84C3E0133C7F84C3ECF
:109A400000218FE740335D1B99424FEAA5153FF691
:109A5000F1AE10B1013887F8500FB8F1540F89D129
:109A6000B7F8123E0133A7F8123E83E78033DBE6F6
:109A7000C033D9E68034BEE7C034BCE7B7F8103E47
:109A80000133A7F8103ED7F8503E0133C7F8503ED7
:109A9000D1E700BF201A0020182B002098010020D9
:109AA00044750508782900205655555597F8842B9C
:109AB00002EB420207EBC2025A4492F8312B0D2A04
:109AC0007FF44DAF8023019989F81E304AE700BF2B
:109AD00010B504464CF0F6FE81B22046BDE81040B9
:109AE000FFF7ECBB38B50B4D00EB400005F2BC5363
:109AF00003EBC00393ED027AD3ED037AE7EE007A2D
:109B0000C4002C44B0EE670A4CF0DCFED4F8BC353F
:109B1000186038BD201A0020144B154910B50446B2
:109B200018681B79206284F82430152204F125007E
:109B30004DF0F4FC0F4B93F844214FF0010E84F8E4
:109B40003AE012B984F83B2010BD03F5A47CBCE8D0
:109B50000F0020606160A260E360BCE80F0084F841
:109B60003BE020616161A261E36110BD14E9050879
:109B70001CE90508182B002010B5002138220446E6
:109B80004DF07BFC0D490E4A0E482061C4E90512D8
:109B90000D480E4AE061012341F61E614FF0090CA9
:109BA000E18484F808C0A37384F82130A2622146BE
:109BB0000748BDE810402CF083BD00BF1A046C07B5
:109BC000001975036400DC0543080E001E7D0101C9
:109BD00024E9050858B183884FF00042B3FA83F3B3
:109BE00032FA03F303D002490A6813430B6070474B
:109BF000003C0140274A92F8863B7BB3D2F8881B91
:109C0000884237D0012B29D0D2F8A01B814235D011
:109C1000022B23D0D2F8B81B884231D0032B1DD0A1
:109C2000D2F8D01B88422DD0042B17D0D2F8E81BD5
:109C3000884229D0052B11D0D2F8001C884225D0AB
:109C4000062B0BD0D2F8181C884221D0072B05D048
:109C5000D2F8301C814208BF07230CD003EB43012C
:109C600002EBC10103F1010CC1F8880B82F886CB2D
:109C7000184670470023DBB2184670470123FAE705
:109C80000223F8E70323F6E70423F4E70523F2E7CA
:109C90000623F0E7201A0020F8B52B4F8C2505FB92
:109CA000007595F8D33603B9F8BD04460E460CF09E
:109CB00059FC38BB8C2505FB04752448A5F8C466FF
:109CC00004EB8404C4EBC40400EB84000CF094FBAC
:109CD00097F8873B024623BB1D4BD5F84C07D3F8BA
:109CE000683101219847D5F84817B5F8D0468A8AD7
:109CF000D5F8443722438A8258601A6842F001023C
:109D00001A60F8BD97F8843B03EB430307EBC303EA
:109D1000234493F8316B002ECCD0012385F8C6364E
:109D2000C8E7D5F8CC36D5F848175B7908690849F3
:109D300003F0FC031844D1F8683104219847D5F8A2
:109D4000483780009881F8BD201A0020E4200020C8
:109D5000182B0020F8B5D0F88050866804462846B5
:109D6000376841F0EBFB002284F8542038467179C3
:109D7000FEF72EFC717904F16002FEF7BBFC7179ED
:109D80000822FEF725FC4023636204F118012846EF
:109D900041F06AFC2B6843F010032B60F8BD00BF54
:109DA0002DE9F04F6A4F2DED028B97F87B4085B07F
:109DB00034B90124204605B0BDEC028BBDE8F08F1C
:109DC000D7F8443E08EE103A0DF094FB614B029038
:109DD00093F8A031002B00F0B58107F2C46507F6B7
:109DE000587A07F6486B00260FE02846FFF7B2FFC7
:109DF000584B93F8A03101369E4205F18C050AF1CB
:109E00005C0A0BF1140B80F2A980D7F8503C029A3F
:109E1000D31A03D4AA6D9342C0F27D818C2303FB35
:109E2000067393F8183703F0FF020192002BDCD081
:109E3000AB68A9891A68D5F880305B681FFA83FE81
:109E40009389CEF1160E9BB223EA0103BEF1070FF0
:109E50009381CAD9D7F8503E0133C7F8503ED5F8A0
:109E6000883003939C46002201215CF8044B904605
:109E700089461BE0DCF80000B8F1140FA0EB0403E6
:109E80001DDC13F1080448BF03F11704231108EB8C
:109E900024180446581E013102FA03F38E4509FACC
:109EA00000F242EA03020CF1040C08D38E45E1D81B
:109EB000C8F11503DCF800404FF01508EAE7B8F1E7
:109EC000150F39D12448C2F38423C2F3441100EBA7
:109ED000830300EB8101D3F8883BD1F8881B1B0278
:109EE00043EA011302F01F0100EB8101C2F3C43207
:109EF00000EB8202D1F8881BD2F8882B0B4343EA8F
:109F0000023383EA132282EA121202F00F020F2AAE
:109F100012D1C3F30F134FF6FF7293420CD0B3F577
:109F2000606F00F0FF80ABF80C30019918EE102A3A
:109F300050460CF0ADFA58E7D7F84C3E0133C7F85D
:109F40004C3E002E00F0E08000230193EDE700BFBF
:109F5000201A0020182B002044750508012200213A
:109F600087F84C2FC7F8501C002B3FF422AF97F80E
:109F7000D416890700F1BE80D7F8CC160868497955
:109F80008A40018C92B289B221EA02010184018CDB
:109F900089B20A43012B02843FF40BAF97F8602784
:109FA00012F0020FD7F8582710685479018C0CBFB3
:109FB00001220422A24092B289B221EA0201018464
:109FC000018C89B20A43022B02843FF4F2AE97F867
:109FD000EC2712F0020FD7F8E42710685479018CAF
:109FE0000CBF01220422A24092B289B221EA0201EE
:109FF0000184018C89B20A43032B02843FF4D9AE59
:10A0000097F8782812F0020FD7F870281068547962
:10A01000018C0CBF01220422A24092B289B221EA33
:10A0200002010184018C89B20A43042B02843FF4AB
:10A03000C0AE97F8042912F0020FD7F8FC28106878
:10A040005479018C0CBF01220422A24092B289B241
:10A0500021EA02010184018C89B20A43052B0284A2
:10A060003FF4A7AE97F8902912F0020FD7F888298D
:10A0700010685479018C0CBF01220422A24092B2D4
:10A0800089B221EA02010184018C89B20A43062BBC
:10A0900002843FF48EAE97F81C2A12F0020FD7F814
:10A0A000142A10685479018C0CBF01220422A240AA
:10A0B00092B289B221EA02010184018C89B20A4379
:10A0C000082B02847FF475AED7F8A02A97F8A83A37
:10A0D000116850790A8C9B074CBF042301238340ED
:10A0E0009BB292B222EA03020A840A8C92B2134310
:10A0F0000B845EE6D7F8CC2610685479018C0422D4
:10A10000A24089B292B23FE70399114858224DF01C
:10A110008CF9019609E70024204605B0BDEC028BBE
:10A12000BDE8F08F97F8842B02EB420207EBC202E6
:10A13000324492F8312B0D2A7FF4F5AE80238BF850
:10A140001E30F2E6012287F84C2FC7F8503C31E66A
:10A150001429002043680B4A23F0407323F48073D2
:10A1600043F48073436083681A4042F002028260C5
:10A17000C36A0139CAB223F4700141EA0251C162D3
:10A18000704700BFFDF7FFC0704700BF0020FDF71C
:10A1900049BF00BF0120FDF745BF00BF0220FDF70A
:10A1A00041BF00BF10B1036882881A83704700BFA7
:10A1B00010B1036882885A83704700BF10B40469E5
:10A1C0008269E468416814604024D46044690023D3
:10A1D0000C31C2E90433C2E90633C2E90833C2E9EB
:10A1E0000A33C2E90C3393609363516084B1C2694E
:10A1F000E0689363C2E90233C2E90433C2E906337B
:10A20000C2E90833C2E90A33C2E90C33C2E90001EA
:10A210005DF8044B704700BF436800221A60037D5D
:10A220001F2B08D9203B2022016802FA03F343F0D8
:10A230001803CB6070472022016802FA03F343F051
:10A2400018038B60704700BF0268136A11B1D969A7
:10A2500001B3143330B49C681D689169DDB14FF4CB
:10A26000806088618D60104640690C6180B15968DA
:10A27000D369C9B10A464FF480619A60996122435B
:10A2800012F0010F14BF00224FF400521A621C6139
:10A2900030BC704770478D61054D4FF0FF0C05F8DD
:10A2A00004CF00688D60DFE7024A9A609961E6E7B3
:10A2B00098010020C02C00200168F8B5D1E90423E2
:10A2C00004465568002B49D09861107D5E681F28B0
:10A2D00031D81768202202FA00F040F01800B86068
:10A2E0001A7D1F2A32D91868203A202303FA02F275
:10A2F00042F01802C26000232B6033603368896922
:10A3000043F010033360284641F0AEF9236830462D
:10A31000D96941F0A9F92B68226843F001032B6049
:10A320003368526843F00103336093889BB243F073
:10A3300003039380F8BD17682038202202FA00F04A
:10A3400040F01800F8601A7D1F2ACCD81868202326
:10A3500003FA02F242F018028260CCE7137D9061AA
:10A360001F2B1CD81068202202FA03F343F01803B5
:10A37000836000232B602B68896943F010032B60F6
:10A38000284641F071F92B68226843F001035268B6
:10A390002B6093889BB243F002039380F8BD106852
:10A3A000203B202202FA03F343F01803C360E0E7E6
:10A3B0002DE9F041794E074601253C6897F88880E1
:10A3C0006368B8881A8884F8245022F04002120486
:10A3D000120C1A80228982421AD0B0F5807F024680
:10A3E000A8BF4FF48072022A1988B8BF0222002A3F
:10A3F00092FAA2F2B2FA82F289B208BF4FF0FF32AB
:10A40000013A21F0380141EAC20292B21A80208159
:10A41000397BA27A8A420CD01A8822F003021204F5
:10A42000120C1A801A8892B2002900F092801A80C9
:10A43000A1721A8892B242F040021A80226A916890
:10A44000002900F0A1804FF0000C1432E64652F8CB
:10A45000100C8E4400EA060120B1B1F1805F23D0D8
:10A46000616909B352F8140C143200EA060110B104
:10A47000B1F1805F18D052F80C1C0CF1010C0029CE
:10A48000E5D1227B82B1B8F1000F0DD0BCF1010FF4
:10A490006DD8BEF1070F6AD80CEB8C018900226AD7
:10A4A00011440A7B002A62D0226A92684FF00008A9
:10A4B000002A51D0B8F1000F02D098F80C2022B138
:10A4C000BA6812B1116892884A83226AD2F800E011
:10A4D000226A5168226A9268501E9AB1BEF1000F3A
:10A4E00023D01EF801CB1A899207FCD5A3F80CC023
:10A4F0001A89D207FCD59A8992B209B101F8012BC9
:10A500000138EBD2236A1B7BE3B9236A1B697BB159
:10A51000236AD7F894001B69984701280DD00228B8
:10A5200006D100232362BDE8F0814FF0FF0CDAE78B
:10A53000D4F82080236A14332362236A9B685BB1BA
:10A540006368B7E7BB68002BDFD01A689B8813836A
:10A55000DBE742F003026AE7236A1B68DBB1236A88
:10A56000D3E9007222620022C3E9002225E700211C
:10A570003846FFF769FEBB6813B11A689B8853839E
:10A580003846BDE8F04197E6227B002A8CD0B8F12E
:10A59000000F84D188E72362C5E700BF0000FFFFFA
:10A5A00010B40C4C002304F5D67C01E0152B0CD024
:10A5B00003EB430201331CF802108142F6D122441E
:10A5C0005DF8044B92F9AE0170474FF0FF305DF833
:10A5D000044B7047182B002070B502EB4202104C60
:10A5E0004FEA820E4FF0000C22460EF1080563463A
:10A5F00004E00133172B11D012F81CCF6045F8D1BD
:10A6000092F801C08C45F4D15659002EF1D0C3EB1D
:10A61000C3030EEB8303181D204470BD002070BDE2
:10A620004C81050830B502EB4202104D104C4FEA48
:10A63000820C0CF10C0E2A46002304E00133172B88
:10A6400011D052F82C4FA042F8D114798C42F5D198
:10A6500052F80E40002CF1D02C2000FB03C303F174
:10A660000800284430BD002030BD00BF44750508F7
:10A6700000000140024883690BB108301847704759
:10A68000980100200248C36B0BB12C30184770476B
:10A69000980100200248036E0BB1503018477047F4
:10A6A000980100200348D0F884300BB1743018476B
:10A6B000704700BF980100200348D0F8A8300BB1C4
:10A6C00098301847704700BF980100200348D0F821
:10A6D000CC300BB1BC301847704700BF9801002048
:10A6E0000348D0F8F0300BB1E0301847704700BF96
:10A6F000980100200348D0F8143113B100F582709E
:10A7000018477047980100200348D0F8383113B13A
:10A7100000F5947018477047980100200348D0F85E
:10A720005C3113B100F5A6701847704798010020FE
:10A730000348D0F8803113B100F5B870184770475E
:10A74000980100200348D0F8A43113B100F5CA7075
:10A7500018477047980100200348D0F8C83113B15A
:10A7600000F5DC7018477047980100200348D0F8C6
:10A77000EC3113B100F5EE701847704798010020D6
:10A780000348D0F8103213B100F500701847704735
:10A79000980100200348D0F8343213B100F5097055
:10A7A0001847704798010020094B0A4A013800EB0E
:10A7B000C00003EB8000116B8368074883420CBF25
:10A7C0004FF400134FF480030B431363704700BF33
:10A7D00098010020003802400060024070B5013846
:10A7E0003B4C3C4D00EBC00C04EB8C0C9646DCF86B
:10A7F0000860394AAE420CBF4FF400154FF4800593
:10A80000166B35431563CCF81810CCF8203033495B
:10A81000DCF80C308B424FEAC0023ED001F580617B
:10A820008B423AD0A1F57A718B4245D001F5806117
:10A830008B4241D0A1F57A718B423FD001F5806106
:10A840008B423BD0A1F57A718B4233D001F5806108
:10A850008B422FD0A1F57A718B4231D001F5806106
:10A860008B422DD0A1F57A718B422BD001F58061FE
:10A870008B4227D0A1F57A718B4225D001F58061FA
:10A880008B4221D0A1F57A718B421FD0144D01F576
:10A8900080618B4218BF002500E0124D104404EB8C
:10A8A0008003CEF387119D62587FBDE8704000227F
:10A8B00048F0BCBD0C4DF1E70C4DEFE70C4DEDE75A
:10A8C0000C4DEBE70C4DE9E70C4DE7E7044DE5E7F0
:10A8D00098010020006002400038024010600240F1
:10A8E00000800028208000100080001800880010E0
:10A8F0000080201020800020008800200080202080
:10A9000060B182884FF00043B2FA82F2D34005D0A2
:10A91000034A116821EA030111605361704700BFC7
:10A92000003C01400120FEF7F5BA00BF0220FEF70F
:10A93000F1BA00BF0420FEF7EDBA00BF0820FEF711
:10A94000E9BA00BF1020FEF7E5BA00BF4FF47870F7
:10A95000FEF7E0BA4FF47C40FEF7DCBA30B50C46A7
:10A9600083B0054618B3036803F13F4303F57E0344
:10A970009B0A104A134493F88C0E47F081FBA98878
:10A98000009104F00303C4F381028DF804302868B9
:10A990008DF80520C4F300136946C4F341148DF803
:10A9A00006308DF8074040F031FD03B030BD4FF068
:10A9B000FF33DEE74475050800B1CFE7704700BFFD
:10A9C0002DE9F8432A4B03610D46044623200DF080
:10A9D000D9F86B7883B1042B12D0226913702369E4
:10A9E00002221A70EB783BB104F11008A9784046B6
:10A9F0000BF03AFE074638B900273846BDE8F88321
:10AA0000236901221A70EAE7E8780CF0C9F9A0611D
:10AA10002B780133DBB210B1C3712223837109217A
:10AA2000FFF7CAFFA069FFF7BDFB124AD2F8443E08
:10AA3000632BFBD91048DFF84890104E0BF0EAFD6D
:10AA4000A08202E059F8046B56B14046B047034675
:10AA50000028F7D0206984F8D83049F0BBFFCCE754
:10AA6000E8780CF09DF90CF0FBF93746C5E700BF1C
:10AA7000042D0020201A002040420F00155A04081F
:10AA8000DC83050838B50C4BD3F814520544044652
:10AA9000A87D0CF085F968B12E2201348271C47151
:10AAA0000121FFF789FFA87D0CF07AF910B1036846
:10AAB00082885A8338BD00BF182B002070B5044629
:10AAC00090F8210182B008B902B070BD0CF068F9AD
:10AAD0000546002856D083882C4AB3FA83F32621F2
:10AAE000202BC180E260C3F11F01EDD0284B294A21
:10AAF00003EB81030A440C34C3F8844692F8A46E35
:10AB0000FFF7FEFE0021FFF729FFA9882868B1FAA8
:10AB100081F100F13F40C1F11F0100F57E00C9B293
:10AB2000C0F3872040F032FEAA884FF00043B2FA0B
:10AB300082F2D3404FF400610122684600938DF801
:10AB40000620ADF8041048F03DFC134B334493F855
:10AB50001822F02A0CD8AA884FF00043B2FA82F2E9
:10AB6000D340B1D00D490A6813430B6002B070BDE9
:10AB70000B49F022885D83F818220321002248F057
:10AB800055FCE8E7014BE3609EE700BFB58E000887
:10AB9000201A002044750508182B0020003C0140B5
:10ABA0006CE905080E4B70B5D3F84061002E14DD3A
:10ABB0000C4C002503E0B54204F120040DD0237FA6
:10ABC0000135002BF7D0E0680028F4D0217DFFF795
:10ABD000C5FEB54204F12004F1D1012070BD00BFD3
:10ABE000182B0020A01E002070B50C4682B0154620
:10ABF0000646002839D0036803F13F4303F57E037E
:10AC00009B0A1B4A134493F88C0E47F039FAB2881A
:10AC10000092B2FA82F304F003028DF80420C4F328
:10AC2000810230688DF80520C3F11F03C4F30012C0
:10AC3000C4F341148DF80740C3F3CC0400EB840443
:10AC400003F007038DF806209B00226A0F269D4023
:10AC500006FA03F322EA03032362226A15436946D4
:10AC6000256240F0D3FB02B070BD4FF0FF33C8E760
:10AC70004475050800B1B7E7704700BF2DE9F04300
:10AC8000774D05EB001683B0D6F82032002B00F08C
:10AC9000938004464FEA001896F8280247F0F0F92E
:10ACA00096F82832590903F01F0203294FF00103D7
:10ACB00003FA02F300F09880042900F0858002294D
:10ACC0007DD005EB0803013493F824020CF068F8FA
:10ACD000E4B2814610B112238371C47105EB0803FD
:10ACE00093F825020CF05CF8074610B11323C471E9
:10ACF000837105EB080393F826020CF051F8064621
:10AD000010B11423C47183714544484695F8272235
:10AD100001924A21FFF7AEFF019A38462A21FFF738
:10AD2000A9FF019A0A213046FFF7A4FFD5F8202297
:10AD30004C4B9A425DD04C4B9A424AD04B4B9A4274
:10AD400062D04B4B9A426AD04A4B9A4272D04A4BDD
:10AD50009A427AD049499088B1F84A42B1F84832CB
:10AD6000B1F852522343B1F84C422343B1F84E425A
:10AD700020F003002343B1F850420004000C2343A9
:10AD8000B1F8544290802B4310882343B1F85642C7
:10AD9000B1F8581200F44150234303439BB213808F
:10ADA000938B23F400631B041B0C93831182138881
:10ADB0009BB243F04003138003B0BDE8F083304AF8
:10ADC000516A0B4353627CE72D4A11690B431361AF
:10ADD00077E703F50033196A41F480411962196A73
:10ADE00021F480411962B5E7254A116A0B431362C9
:10ADF00067E703F58433596A41F480515962596A0F
:10AE000021F480515962A5E703F5FE33196A41F434
:10AE100000411962196A21F4004119629AE703F5A9
:10AE20008233596A41F400515962596A21F4005140
:10AE300059628FE703F56843596A41F480115962FA
:10AE4000596A21F48011596284E703F56443596A11
:10AE500041F400115962596A21F40011596279E7ED
:10AE6000182B00200030014000380040003C00401A
:10AE7000003401400050014000540140980100207E
:10AE800000380240431C00F074812DE9F04F00EBC4
:10AE90008003BE4FDA0087B057F802908100054664
:10AEA000019107EBC303B9F1000F05D09C68002C9A
:10AEB00000F02F81A17911B107B0BDE8F08FD3F870
:10AEC0000CA0BAF1000F00F0A2819AF80630002B16
:10AED000F2D11832B818D9F80480BB50691CC0E907
:10AEE0000133C3601523A371C9B21623E1718AF837
:10AEF00007108AF8063099F8180047F0C1F8B8F83A
:10AF000004302268A18823F440731B041B0CA8F8AA
:10AF10000430DAF800301183BAF804201A831121C2
:10AF20002046FFF71BFD11215046FFF717FD0926AC
:10AF30004FF0330B05E0BBF1010B00F015810CF075
:10AF400073FC0A20002CF6D02268A18813691942EC
:10AF5000F1D0518305200CF067FC2368A2881A8386
:10AF600005200CF061FC013EE2D1332604E0013EF5
:10AF700000F030810CF058FC0A20002CF7D0236838
:10AF8000A28819690A42F2D05A8305200CF04CFCC1
:10AF9000BAF1000F00F05D81DAF80030BAF8042051
:10AFA0005A8305200CF040FC002C00F0248123681B
:10AFB000A2881A8305200CF037FCDAF80030BAF8C2
:10AFC00004201A8305200CF02FFC2368A2881B693B
:10AFD0001A4240F0D580019B2B4407EBC3039A7CB7
:10AFE000002A40F0CA801A7C12212046FFF7FCFD9F
:10AFF000019B2B4407EBC3039B7C002B00F0C48018
:10B000003221BAF1000F07D0019B2B4407EBC30399
:10B0100050465A7CFFF7E8FD5D4B984500F02881CB
:10B020005C4B984500F02F815B4B984500F03681D2
:10B03000019B2B4407EBC3074FF47A73BC8A03FBD5
:10B0400004F4B8F8043023F440731B041B0CA8F874
:10B050000430B8F800309BB243F00103A8F8003088
:10B06000B8F8045002A840F01BFA25F03F050499F7
:10B070004A4B2D04A3FB01232D0C45EA9345A8F868
:10B080000450B8F8002022F001021204120CA8F8B3
:10B090000020434A980C9442034600F383806200E8
:10B0A000B1FBF2F292B20133042A38BF0422A8F8AD
:10B0B0002030A8F81C20B8F800309BB243F0010300
:10B0C000A8F80030B8F8003023F4816323F00203BD
:10B0D0001B041B0C4FF4804143F48063A8F800303C
:10B0E000A8F80810B8F8003023F080031B041B0CEC
:10B0F0000022A8F8003099F81A00114648F096F995
:10B10000002299F81900114607B0BDE8F04F48F049
:10B110008DB9D3F80CA0BAF1000F00F0D4809AF8E2
:10B120000630002B7FF4C8AE1832BB18D9F8048063
:10B13000BC50C3E90144DC6016238AF806306B1C5E
:10B140008AF8073099F8180046F09AFFB8F80430EA
:10B15000BAF8042023F440731B041B0CA8F8043035
:10B16000DAF800301A83DEE624B905200CF05CFB27
:10B17000F6E67047A1882268EBE61A7C322134E7B4
:10B18000DAF800301B6926E712213AE7201A00207E
:10B190000054004000580040005C004083DE1B4328
:10B1A000A086010004EB4404B1FBF4F18AB2C1F3C0
:10B1B0000B0109B942F0010250494FF4967300FBAC
:10B1C00003F3A1FB03139B09013342F40042A8F8E7
:10B1D00020306EE7002C40F08D8005200CF024FB21
:10B1E000BAF1000F65D0DAF80030BAF804205A83BB
:10B1F00005200CF019FB05200CF016FBDAF80030E6
:10B20000BAF804201A8305200CF00EFBF0E6183281
:10B21000BB18D9F8048047F802A0C3E901AAC3F813
:10B220000CA01523A371431CE37199F8180046F094
:10B2300027FFB8F80430A28823F440731B041B0CCA
:10B24000A8F80430236811211A832046FFF786FBF3
:10B250006DE605200CF0E8FA2368A2881A83052021
:10B260000CF0E2FA05200CF0DFFA23681B69B2E665
:10B2700003F5F2331A6A42F400121A621A6A22F4CF
:10B2800000121A62D4E603F5F0331A6A42F480021F
:10B290001A621A6A22F480021A62C9E603F5EE33D2
:10B2A0001A6A42F400021A621A6A22F400021A624E
:10B2B000BEE605200CF0B8FA05200CF0B5FA052022
:10B2C0000CF0B2FA94E61832BB18D9F8048047F8AB
:10B2D00002A0C3E901AAC3F80CA099F8180046F02F
:10B2E000CFFEB8F8043023F440731B041B0CA8F8FD
:10B2F00004301CE6A288236846E600BFD34D6210E6
:10B300002DE9F84307460CF05FF8DFF8508007EBB3
:10B310008709044608EBC90542F20F7604E00CF0F9
:10B3200053F8031BB3420ADC6B7E002BF7D108EB0A
:10B33000C90898F8180080F00100BDE8F883064AB3
:10B34000B2F85032013338469BB2A2F85032FFF7C0
:10B3500099FD0020BDE8F883182B0020201A00205A
:10B3600070B500EB8003274D05EBC30255F8333071
:10B370005C68A38A84B09BB20393039B13F4706F41
:10B380001CBF01231376039B13F4E06F4FEA800682
:10B390000CD1A38A304423F4706305EBC0051B0471
:10B3A0001B0C0022A3826A7604B070BD238BA38895
:10B3B00023F480631B041B0CA380039B9A05E8D431
:10B3C00023889B05E5D42388D9050FD52388DA0582
:10B3D000FCD423889BB243F40073238023889B050D
:10B3E000FCD40190FFF74EFD0198D2E723889BB271
:10B3F00043F400732380A38823F440731B041B0CC5
:10B40000A380C6E7201A00200020A9E70120A7E7B3
:10B410000220A5E72DE9F0472B4C994600EB80036D
:10B4200004EBC304676827B10546607E00F0FF089F
:10B4300020B14FF000084046BDE8F0870E46924626
:10B440000BF0C2FF089B7100C9B2C4E908330123A5
:10B45000A17684F81BA084F81D80A37784F81C9043
:10B46000637684F81880BA88910506461CD43B8818
:10B47000DA050FD442F20F7404E00BF0A5FF831B32
:10B48000A34215DC3B889B05F7D43B889BB243F471
:10B4900080733B80BB889BB24FF0010843F440733C
:10B4A000BB804046BDE8F08798464046BDE8F0873F
:10B4B000064AB2F8503201339BB22846A2F8503205
:10B4C000FFF7E0FCB7E700BF201A0020182B002090
:10B4D000F8B590F871301C09013C042C0FD81B4EB4
:10B4E00006EB44020546B2F8B40E03F00F0340FA2F
:10B4F00003F2D20703D595F87C70012F01D001200B
:10B50000F8BD07FA03F3013B184034444AF0FCF954
:10B5100094F8C02E0E4C104454F8302004EBC004B4
:10B520001069A3881840EBD0EB6E002285F87C20D0
:10B5300093F8212020460221FFF756FB2A6E9389BB
:10B540009BB243F0080338469381F8BD4475050863
:10B550006C2D00201D4B1E48196C1E4A10B441F082
:10B5600080510124196404625321FF24CA205462CB
:10B57000506251625B6FDB0085B017D4164804231C
:10B58000002102910290029A1A440292029A043314
:10B590001C2B1160F5D103910390039B0393039B34
:10B5A0000E4A1A6005B05DF8044B70470A4B002242
:10B5B00001920193019B0193019A084B12689A42F0
:10B5C000DCD105B05DF8044B704700BF0038024085
:10B5D00000000E42002800405028004031666542BD
:10B5E00070B5056E8668AB8923F400531B041B0CF1
:10B5F000AB8142790446007912F0040F14BF4FF476
:10B60000805C4FF0000C110310F0010F4FEA022292
:10B610000CBF0023042302F48062800748BF43F07C
:10B62000080342EA0C0213432A8A92B201F4005141
:10B6300022F440520A432A82AA8922F4B05222F00C
:10B640000C021204120C1A43AA81AB8A23F4407331
:10B650001B041B0C90B0AB8201A83FF021FF7A4B7A
:10B660009D4205D003F580639D4201D0039A00E01E
:10B67000049AAB897549A8891B0402EB82024CBF6E
:10B680007300B30002EB8202B2FBF3F3A1FB03628F
:10B6900052096426000406FB12334FEA021200F13D
:10B6A00098801B013233A1FB0313C3F343131343ED
:10B6B0009BB22B816679256EF30700F192803607E5
:10B6C000AB8A48D59BB243F00803AB82AB899BB2EF
:10B6D00043F40053AB812379D80732D5E06B0028BF
:10B6E00000F08D800023CDE90833CDE90C33CDE99E
:10B6F0000E334FF4807204930693E3680A92059325
:10B70000E26D636CCDE90132636903934FF48031DC
:10B710004FF4806307930B913FF010FF01A9E06B9A
:10B720003FF0A2FFE26B216E136843F00103136048
:10B730008B8A9BB243F040038B825268237992B28A
:10B74000626599070DD4226E93899BB243F400532E
:10B75000938110B070BD23F008031B041B0CAB8257
:10B76000B4E7206C002856D0A36D02934FF48033C9
:10B770000B934FF48063079323690593A36C0193A4
:10B78000002540230493CDE90855CDE90C55CDE9BA
:10B790000E55039506950A953FF0D0FE206C01A941
:10B7A0003FF062FF236C226E586940F080005861C0
